{
  "contractName": "Allowance",
  "abi": [
    {
      "inputs": [
        {
          "internalType": "address",
          "name": "",
          "type": "address"
        }
      ],
      "name": "allowance",
      "outputs": [
        {
          "internalType": "uint256",
          "name": "",
          "type": "uint256"
        }
      ],
      "stateMutability": "view",
      "type": "function"
    },
    {
      "inputs": [],
      "name": "isOwner",
      "outputs": [
        {
          "internalType": "bool",
          "name": "",
          "type": "bool"
        }
      ],
      "stateMutability": "view",
      "type": "function"
    },
    {
      "inputs": [],
      "name": "owner",
      "outputs": [
        {
          "internalType": "address",
          "name": "",
          "type": "address"
        }
      ],
      "stateMutability": "view",
      "type": "function"
    },
    {
      "inputs": [
        {
          "internalType": "address",
          "name": "recipient",
          "type": "address"
        },
        {
          "internalType": "uint256",
          "name": "amount",
          "type": "uint256"
        }
      ],
      "name": "changeAllowance",
      "outputs": [],
      "stateMutability": "nonpayable",
      "type": "function"
    }
  ],
  "bytecode": "0x608060405234801561001057600080fd5b50336000806101000a81548173ffffffffffffffffffffffffffffffffffffffff021916908373ffffffffffffffffffffffffffffffffffffffff160217905550610477806100606000396000f3fe608060405234801561001057600080fd5b506004361061004c5760003560e01c8063079a193b146100515780633e5beab91461006d5780638da5cb5b1461009d5780638f32d59b146100bb575b600080fd5b61006b60048036038101906100669190610294565b6100d9565b005b6100876004803603810190610082919061026b565b6101af565b6040516100949190610376565b60405180910390f35b6100a56101c7565b6040516100b29190610320565b60405180910390f35b6100c36101eb565b6040516100d0919061033b565b60405180910390f35b60008054906101000a900473ffffffffffffffffffffffffffffffffffffffff1673ffffffffffffffffffffffffffffffffffffffff163373ffffffffffffffffffffffffffffffffffffffff1614610167576040517f08c379a000000000000000000000000000000000000000000000000000000000815260040161015e90610356565b60405180910390fd5b80600160008473ffffffffffffffffffffffffffffffffffffffff1673ffffffffffffffffffffffffffffffffffffffff168152602001908152602001600020819055505050565b60016020528060005260406000206000915090505481565b60008054906101000a900473ffffffffffffffffffffffffffffffffffffffff1681565b60003373ffffffffffffffffffffffffffffffffffffffff1660008054906101000a900473ffffffffffffffffffffffffffffffffffffffff1673ffffffffffffffffffffffffffffffffffffffff1614905090565b60008135905061025081610413565b92915050565b6000813590506102658161042a565b92915050565b60006020828403121561027d57600080fd5b600061028b84828501610241565b91505092915050565b600080604083850312156102a757600080fd5b60006102b585828601610241565b92505060206102c685828601610256565b9150509250929050565b6102d9816103a2565b82525050565b6102e8816103b4565b82525050565b60006102fb601583610391565b9150610306826103ea565b602082019050919050565b61031a816103e0565b82525050565b600060208201905061033560008301846102d0565b92915050565b600060208201905061035060008301846102df565b92915050565b6000602082019050818103600083015261036f816102ee565b9050919050565b600060208201905061038b6000830184610311565b92915050565b600082825260208201905092915050565b60006103ad826103c0565b9050919050565b60008115159050919050565b600073ffffffffffffffffffffffffffffffffffffffff82169050919050565b6000819050919050565b7f596f7520617265206e6f7420746865206f776e65720000000000000000000000600082015250565b61041c816103a2565b811461042757600080fd5b50565b610433816103e0565b811461043e57600080fd5b5056fea2646970667358221220381f8d9a9586a886c9bbc5a32d91d62e7e018093a9a6868e5087758e0ef2c70d64736f6c63430008040033",
  "immutableReferences": {},
  "source": "pragma solidity 0.8.4;\n\nimport './Ownable.sol';\n\ncontract Allowance is Ownable {\n    mapping(address => uint) public allowance;\n    \n      function reduceAllowance(uint amount) internal {\n        allowance[msg.sender] -= amount;\n    }\n    \n    function changeAllowance(address recipient, uint amount) public onlyOwner {\n        allowance[recipient] = amount;\n    }\n    \n    modifier onlyOwnerOrAllowed(uint amount) {\n        require(isOwner() || amount <= allowance[msg.sender], 'You want to withdraw more than you are allowed to');\n        _;\n    }\n    \n}",
  "sourcePath": "/home/taras/Projects/Ethereum/SharedWallet/contracts/Allowance.sol",
  "compiler": {
    "name": "solc",
    "version": "0.8.4+commit.c7e474f2.Emscripten.clang"
  },
  "schemaVersion": "3.4.1",
  "updatedAt": "2021-06-10T07:53:50.949Z",
  "devdoc": {
    "kind": "dev",
    "methods": {},
    "version": 1
  },
  "userdoc": {
    "kind": "user",
    "methods": {},
    "version": 1
  }
}