{
  "contractName": "SharedWallet",
  "abi": [
    {
      "anonymous": false,
      "inputs": [
        {
          "indexed": false,
          "internalType": "uint256",
          "name": "balance",
          "type": "uint256"
        }
      ],
      "name": "BalanceChanged",
      "type": "event"
    },
    {
      "inputs": [
        {
          "internalType": "address",
          "name": "",
          "type": "address"
        }
      ],
      "name": "allowance",
      "outputs": [
        {
          "internalType": "uint256",
          "name": "",
          "type": "uint256"
        }
      ],
      "stateMutability": "view",
      "type": "function",
      "constant": true
    },
    {
      "inputs": [
        {
          "internalType": "address",
          "name": "recipient",
          "type": "address"
        },
        {
          "internalType": "uint256",
          "name": "amount",
          "type": "uint256"
        }
      ],
      "name": "changeAllowance",
      "outputs": [],
      "stateMutability": "nonpayable",
      "type": "function"
    },
    {
      "inputs": [],
      "name": "isOwner",
      "outputs": [
        {
          "internalType": "bool",
          "name": "",
          "type": "bool"
        }
      ],
      "stateMutability": "view",
      "type": "function",
      "constant": true
    },
    {
      "inputs": [],
      "name": "owner",
      "outputs": [
        {
          "internalType": "address",
          "name": "",
          "type": "address"
        }
      ],
      "stateMutability": "view",
      "type": "function",
      "constant": true
    },
    {
      "stateMutability": "payable",
      "type": "receive",
      "payable": true
    },
    {
      "inputs": [],
      "name": "getBalance",
      "outputs": [
        {
          "internalType": "uint256",
          "name": "",
          "type": "uint256"
        }
      ],
      "stateMutability": "view",
      "type": "function",
      "constant": true
    },
    {
      "inputs": [
        {
          "internalType": "address payable",
          "name": "to",
          "type": "address"
        },
        {
          "internalType": "uint256",
          "name": "amount",
          "type": "uint256"
        }
      ],
      "name": "withdrawMoney",
      "outputs": [],
      "stateMutability": "nonpayable",
      "type": "function"
    }
  ],
  "bytecode": "0x608060405234801561001057600080fd5b50336000806101000a81548173ffffffffffffffffffffffffffffffffffffffff021916908373ffffffffffffffffffffffffffffffffffffffff16021790555061094c806100606000396000f3fe6080604052600436106100595760003560e01c8063079a193b1461006557806312065fe01461008e5780633e5beab9146100b95780638da5cb5b146100f65780638f32d59b14610121578063f274c8971461014c57610060565b3661006057005b600080fd5b34801561007157600080fd5b5061008c600480360381019061008791906105df565b610175565b005b34801561009a57600080fd5b506100a361024b565b6040516100b09190610747565b60405180910390f35b3480156100c557600080fd5b506100e060048036038101906100db919061057a565b6102e2565b6040516100ed9190610747565b60405180910390f35b34801561010257600080fd5b5061010b6102fa565b60405161011891906106b1565b60405180910390f35b34801561012d57600080fd5b5061013661031e565b60405161014391906106cc565b60405180910390f35b34801561015857600080fd5b50610173600480360381019061016e91906105a3565b610374565b005b60008054906101000a900473ffffffffffffffffffffffffffffffffffffffff1673ffffffffffffffffffffffffffffffffffffffff163373ffffffffffffffffffffffffffffffffffffffff1614610203576040517f08c379a00000000000000000000000000000000000000000000000000000000081526004016101fa906106e7565b60405180910390fd5b80600160008473ffffffffffffffffffffffffffffffffffffffff1673ffffffffffffffffffffffffffffffffffffffff168152602001908152602001600020819055505050565b60008060009054906101000a900473ffffffffffffffffffffffffffffffffffffffff1673ffffffffffffffffffffffffffffffffffffffff163373ffffffffffffffffffffffffffffffffffffffff16146102dc576040517f08c379a00000000000000000000000000000000000000000000000000000000081526004016102d3906106e7565b60405180910390fd5b47905090565b60016020528060005260406000206000915090505481565b60008054906101000a900473ffffffffffffffffffffffffffffffffffffffff1681565b60003373ffffffffffffffffffffffffffffffffffffffff1660008054906101000a900473ffffffffffffffffffffffffffffffffffffffff1673ffffffffffffffffffffffffffffffffffffffff1614905090565b8061037d61031e565b806103c75750600160003373ffffffffffffffffffffffffffffffffffffffff1673ffffffffffffffffffffffffffffffffffffffff168152602001908152602001600020548111155b610406576040517f08c379a00000000000000000000000000000000000000000000000000000000081526004016103fd90610727565b60405180910390fd5b81471015610449576040517f08c379a000000000000000000000000000000000000000000000000000000000815260040161044090610707565b60405180910390fd5b61045161031e565b61045f5761045e826104e2565b5b8273ffffffffffffffffffffffffffffffffffffffff166108fc839081150290604051600060405180830381858888f193505050501580156104a5573d6000803e3d6000fd5b507f2f23375908fc16f7e00482a87cc91dd819a6eeaf132264c16a70b71a3205de8a476040516104d59190610747565b60405180910390a1505050565b80600160003373ffffffffffffffffffffffffffffffffffffffff1673ffffffffffffffffffffffffffffffffffffffff16815260200190815260200160002060008282546105319190610773565b9250508190555050565b60008135905061054a816108d1565b92915050565b60008135905061055f816108e8565b92915050565b600081359050610574816108ff565b92915050565b60006020828403121561058c57600080fd5b600061059a8482850161053b565b91505092915050565b600080604083850312156105b657600080fd5b60006105c485828601610550565b92505060206105d585828601610565565b9150509250929050565b600080604083850312156105f257600080fd5b60006106008582860161053b565b925050602061061185828601610565565b9150509250929050565b610624816107a7565b82525050565b610633816107cb565b82525050565b6000610646601583610762565b915061065182610830565b602082019050919050565b6000610669601c83610762565b915061067482610859565b602082019050919050565b600061068c603183610762565b915061069782610882565b604082019050919050565b6106ab816107f7565b82525050565b60006020820190506106c6600083018461061b565b92915050565b60006020820190506106e1600083018461062a565b92915050565b6000602082019050818103600083015261070081610639565b9050919050565b600060208201905081810360008301526107208161065c565b9050919050565b600060208201905081810360008301526107408161067f565b9050919050565b600060208201905061075c60008301846106a2565b92915050565b600082825260208201905092915050565b600061077e826107f7565b9150610789836107f7565b92508282101561079c5761079b610801565b5b828203905092915050565b60006107b2826107d7565b9050919050565b60006107c4826107d7565b9050919050565b60008115159050919050565b600073ffffffffffffffffffffffffffffffffffffffff82169050919050565b6000819050919050565b7f4e487b7100000000000000000000000000000000000000000000000000000000600052601160045260246000fd5b7f596f7520617265206e6f7420746865206f776e65720000000000000000000000600082015250565b7f596f7520646f206e6f74206861766520656e6f7567682066756e647300000000600082015250565b7f596f752077616e7420746f207769746864726177206d6f7265207468616e207960008201527f6f752061726520616c6c6f77656420746f000000000000000000000000000000602082015250565b6108da816107a7565b81146108e557600080fd5b50565b6108f1816107b9565b81146108fc57600080fd5b50565b610908816107f7565b811461091357600080fd5b5056fea26469706673582212205dbe6a5db51d21a65dcdc9e6cd1d61f9579c279a24e98f136ec963ce9bbe0cee64736f6c63430008040033",
  "immutableReferences": {},
  "source": "pragma solidity 0.8.4;\n\nimport './Allowance.sol';\n\ncontract SharedWallet is Allowance {\n\n    event BalanceChanged(uint balance);\n\n    function getBalance() public onlyOwner view returns(uint)  {\n        return address(this).balance;\n    }\n    \n    function withdrawMoney(address payable to, uint amount) public onlyOwnerOrAllowed(amount) {\n        require(address(this).balance >= amount, 'You do not have enough funds');\n        if (!isOwner()) {\n            reduceAllowance(amount);\n        }\n        to.transfer(amount);\n        emit BalanceChanged(address(this).balance);\n    }\n    \n    receive() external payable {\n        \n    }\n    \n \n}",
  "sourcePath": "/home/taras/Projects/Ethereum/SharedWallet/contracts/SharedWallet.sol",
  "compiler": {
    "name": "solc",
    "version": "0.8.4+commit.c7e474f2.Emscripten.clang"
  },
  "schemaVersion": "3.4.1",
  "updatedAt": "2021-06-12T04:42:25.271Z",
  "networkType": "ethereum",
  "devdoc": {
    "kind": "dev",
    "methods": {},
    "version": 1
  },
  "userdoc": {
    "kind": "user",
    "methods": {},
    "version": 1
  }
}